:03000000020237C2
:0C023700787FE4F6D8FD75812E02027E6F
:1006370075ECA975FCAA75800175ED2875FDAA757D
:10064700900275EEAAE4F5A075EF02F5B0C285D267
:0406570091C2B0227A
:10069800758911E4F5A8F58CF58A758D85758BED4E
:0B06A80090FFCA7440F0D28CC28E227A
:0907030043880175AC10D2A82254
:0C06D400E4F584F5EB75845375EBAC2263
:0C06E00075953790FFA2E4F075BDFF2275
:10061000E4F5A790FFA0F090FFA2740CF000007525
:10062000953775910B90FFE0E4F0D137F115F11C8F
:07063000D198F103D2AF22C3
:06057300011E00011F0043
:020003000105F5
:10000500C0E0C0D075D000C000C004C005C006C0A7
:0100150007E3
:1000160053ACFEAF8CEFFEAD8A7C00E42DFFEC3EC8
:10002600FEC28C758C00758A00D28CD3EF94F8EEE4
:100036009443401EEF9430EE94755016C28EC28FD4
:10004600758D85758BEDD28E751E00751F01052C7D
:1000560001E1E51F64017056D3EF9480EE940C40E5
:1000660020EE9419501BE51E131313541FFF242072
:10007600F8E6C3134480FE74202FF8A606051E80FA
:100086002DD3EF94F0EE9405401EEF9480EE940C81
:100096005016E51E131313541F2420F8C000E6C3A0
:1000A60013D000F6051E8006751E00751F00E51E9E
:1000B60064207027F51EF51FE523F4B52217E52108
:1000C600F4B52011E520B4800CE522B40A07752AA0
:0B00D60001F52B8006752A00752B0039
:0F00E100D007D006D005D004D000D0D0D0E03268
:0D06C700308F09C28FC28EE4F52BF52C2276
:0C06EC00D110D1C7714BB13691F780F6E8
:09057900010800010900010A005B
:0707150053ED3F43ED4022CC
:10034B000512E51270020511431001AE11FF7C007E
:10035B007D0A31B6ED4C7003431002AE11AF127C27
:10036B00007D1431B6ED4C7003431004AE11AF1287
:10037B007C007D3231B6ED4C7003431008AE11AFEB
:10038B00127C007D6431B6ED4C7003431010AE113E
:10039B00AF127C037DE831B6ED4C7003431020E5C2
:0F03AB0012B4880AE511B41305E4F511F5122216
:10053600E51030E0055310FE916CE51030E10553EF
:1005460010FDD15BE51030E2095310FBD1B311F079
:100556009115E51030E3055310F7B1E5E51030E4E9
:0D056600035310EFE51030E5035310DF22C2
:0202C300AD0785
:1002C500E4FC74017E00A804088005C333CE33CE58
:1002D500D8F9FFEDFBEF5B601BEC75F005A4240B73
:1002E500F8E6FE08E64E7055EC75F005A4240DF809
:1002F50076018049EC75F005A4240DF8E6603EEC26
:1003050075F005A4240BF8E6FE08E6FFC39401EE9C
:1003150094004013D3EF9464EE9400500AEC75F00A
:1003250005A4240EF87601EC75F005A4240DF8E477
:10033500F6EC75F005A4240BF8E4F608F60CEC646D
:0503450001600241C748
:01034A002290
:08070C00E4FFF52E3093010F0C
:0107140022C2
:1004B400E4FEE50814601014601F24027032F10C8D
:1004C4008F097508018029F10CEFB509057508023B
:1004D400801EE4F509F5088017E4F508F10CEFB582
:1004E400090BE50931A4E4F5097E018003E4F5096B
:0204F400AF0651
:0104F60022E3
:10065B00E4F52DFDFB7A00792D91B4EF600EE52DBD
:10066B00650AFD6004AF2D51C3852D0A71BAA1AC8B
:1003BA00E4FFEF75F005A4240DF8E6603DEF75F053
:1003CA0005A4240BF80806E618700106E6FC08E600
:1003DA00FD64284C700CEF75F005A4240FF8760123
:1003EA008024C3ED94C9EC9400401BEF75F005A47A
:1003FA00240BF876000876C9800CEF75F005A42462
:0A040A000BF8E4F608F60FBF01A896
:0104140022C5
:1005AC00E50E6003E4F50EE50F602DE4F50FE5199B
:1005BC006013E51445137020E4F515751C01F51A4C
:1005CC00751BC8800CE51B451A700D751501E4F5FB
:0905DC001CE4F516F517F51822D0
:10058200011500011C00011900021A0000021300EB
:0B0592000001160002170000011D010F
:0B06F800E51D6006751501E4F51D22EC
:10067B00E5197018E51B451A701275130075146493
:0D068B00751501E4F51CF516F517F518229C
:10046C00E52A60437E007F037D007B007A00792AB9
:10047C00510BE5196019D3E5149400E51394005061
:10048C0026751A00751BC8E4F515751C018012E55C
:10049C001B451A7012751300751464751501E4F57B
:0804AC001CF516F517F51822E6
:1006B300D3E5149400E51394004008E51415147071
:0406C30002151322E7
:1000F000E515700221A3751901E51614603214602C
:100100004C14606614700221872404600221A30548
:1001100018E51870020517C39414E51794005007EA
:10012000D285D291C2B022E4F517F51875160122D6
:100130000518E51870020517C39415E517940050CB
:1001400003C29122E4F517F518751602220518E589
:100150001870020517C3940AE51794005003D2B033
:1001600022E4F517F518751603220518E518700234
:100170000517C3940AE51794005003C2B022E4F5B2
:1001800017F518751604220518E51870020517C32F
:10019000940AE51794005003D2B022E4F517F5183D
:0401A00075160622A8
:10041500E51C6052D3E51B9400E51A94004009E5FC
:100425001B151B7041151A22E51614602614602948
:10043500240270320518E51870020517C3940AE501
:100445001794005005D291C2B022E4F517F518753E
:10045500160122C28575160222751603E4F51CF5F0
:0704650019F52675273A2264
:0E059D000128000129000226000002240000AF
:07071C0053EDFC43ED012247
:1004F700D3E5279400E52694005033209028E5287B
:10050700702C752801D3E5259400E5249400500349
:10051700E4F5290529E529D3940C4012E4F529F5DA
:0F0527002675273AC17BE4F528F52475250522B2
:1005E500E5197026D3E5279400E52694004008E533
:1005F50027152770021526D3E5259400E5249400D8
:0B0605004008E5251525700215242291
:100243000206ECE493A3F8E493A34003F68001F2DF
:1002530008DFF48029E493A3F85407240CC8C333BC
:10026300C4540F4420C8834004F456800146F6DF8B
:10027300E4800B0102040810204080900573E47EA3
:10028300019360BCA3FF543F30E509541FFEE49380
:10029300A360010ECF54C025E060A840B8E493A347
:1002A300FAE493A3F8E493A3C8C582C8CAC583CA72
:1002B300F0A3C8C582C8CAC583CADFE9DEE780BE2A
:0105AB00004F
:1001A400BB010689828A83F0225002F722BBFE013A
:0201B400F32234
:1001B600BC000BBE0029EF8DF084FFADF022E4CC2D
:1001C600F875F008EF2FFFEE33FEEC33FCEE9DECF6
:1001D600984005FCEE9DFE0FD5F0E9E4CEFD22ED3C
:1001E600F8F5F0EE8420D21CFEADF075F008EF2F86
:1001F600FFED33FD4007985006D5F0F222C398FD77
:050206000FD5F0EA2213
:10020B00EF4E6012EF60010EEDBB010B89828A830A
:10021B00F0A3DFFCDEFA2289F05007F709DFFCA917
:0C022B00F022BBFEFCF309DFFCA9F0226E
:00000001FF
